:020000040800F2
:10000000A80800204D0200089F420008AD3F0008EC
:100010009D420008292100083D4A00080000000018
:10002000000000000000000000000000A3420008E3
:10003000DD21000800000000A1420008A5420008E0
:1000400067020008670200086702000867020008EC
:100050006702000867020008DF2100086702000845
:1000600067020008670200086702000867020008CC
:1000700067020008670200086702000867020008BC
:100080002D21000867020008F51F0008670200081C
:10009000670200086702000867020008670200089C
:1000A000670200086702000867020008670200088C
:1000B000670200083543000867020008670200086D
:1000C000670200086702000867020008670200086C
:1000D0006702000867020008314A0008670200084A
:1000E000670200086702000867020008670200084C
:1000F000670200086702000867020008670200083C
:10010000670200086702000867020008670200082B
:10011000670200086702000867020008670200081B
:10012000670200086702000867020008670200080B
:1001300067020008670200086702000867020008FB
:1001400067020008670200086702000867020008EB
:1001500067020008670200086702000867020008DB
:1001600067020008670200086702000867020008CB
:10017000670200086702000867020008000000002C
:10018000670200086702000800F002F800F04FF86C
:100190000AA090E8000C82448344AAF10107DA45E2
:1001A00001D100F044F8AFF2090EBAE80F0013F0E5
:1001B000010F18BFFB1A43F00103184764530000F6
:1001C00084530000103A24BF78C878C1FAD8520787
:1001D00024BF30C830C144BF04680C6070470000C1
:1001E0000023002400250026103A28BF78C1FBD840
:1001F000520728BF30C148BF0B607047662905F021
:10020000B580002070471FB505F0A3F800F04CFC46
:1002100004000020002104F023FE401C6060002048
:10022000002104F007FEE0601FBD10B510BD00F016
:1002300067FD1146FFF7E7FF04F0ACFD01F00AF897
:1002400003B4FFF7F2FF03BC01F04EF80948804702
:1002500009480047FEE7FEE7FEE7FEE7FEE7FEE7A8
:10026000FEE7FEE7FEE7FEE704480549054A064BC0
:10027000704700002543000889010008A8020020FB
:10028000A8080020A8040020A804002053EA020CBB
:1002900000F069802DE9F04B4FF00006002B1FBFE6
:1002A000B3FA83F503FA05F424FA05F65E4012BFAB
:1002B0001643B2FA82F502FA05F4C5F120051EBF15
:1002C00022FA05FC44EA0C04203556EA044C4FEAB5
:1002D000144418BF641C4FF000084FF0000990420E
:1002E00071EB030C39D3002919BFB1FA81F701FA78
:1002F00007F6B0FA80F700FA07F6C7F120071EBF2D
:1003000020FA07FC46EA0C062037B6FBF4FCA7EB04
:100310000507103F07F01F0BCBF120060CFA0BFB73
:100320002CFA06F644BFB3460026202FA4BF5E4633
:100330004FF0000B5BEA060C08BF4FF0010B19EB06
:100340000B09ABFB027C48EB0608C01B06FB02CC8A
:100350000BFB03CC71EB0C01C1E70B460246414697
:100360004846BDE8F08B13B54FF000004FF0000198
:10037000AFF30080BDE81C40704700000FB41CB50F
:10038000074B06AA7B4469460090059800F021FBC4
:100390000020694600F030FB1CBC5DF814FB000037
:1003A0007106000070B5044685690068C10601D574
:1003B000302600E02026C00707D070BDD4E9012117
:1003C00030469047206A401C20626D1EF6D570BDF5
:1003D00070B5044685690078C00707D170BDD4E9BF
:1003E000012120209047206A401C20626D1EF6D516
:1003F00070BD2DE9F0474FF0000A89460446C0F869
:1004000020A02046E1688847002876D0252806D01D
:10041000D4E901219047206A401C2062F1E7E1689D
:10042000204600258847C4F81CA006460027C4F8CB
:1004300018A02A2E09D0304604F05DFC38B304EB36
:100440008708303EC8F8186019E059F8041B2046A8
:1004500004EB87029161E1688847012F064618D1B5
:10046000E069002820DA25F020051DE0D8F8180002
:1004700000EB800006EB40003038C8F8180020463A
:10048000E1688847064604F036FC0028EED1012FCB
:100490000AD02E2E08D12046E16888477F1C0646E8
:1004A000022F45F02005C4DBA069002803DA404292
:1004B00045F00105A061E80701D025F01005B6B1AF
:1004C000A6F14100192802D8203645F400654A46B5
:1004D0003146204625604D46FFF790FE58B1012871
:1004E00006D0ED1D25F0070000F1080989E704E0BA
:1004F00005F1040985E730468AE7206ABDE8F08700
:1005000010B5431C02E010F8011B71B18107FAD14C
:100510004FF0013202C88C1A8C4314EAC211F9D090
:10052000C01A0A0603D0C01E10BDC01A10BD0A04AE
:1005300001D0801E10BD0902FCD0401E10BD4FF03E
:10054000000200B5134694469646203922BFA0E823
:100550000C50A0E80C50B1F12001BFF4F7AF09072F
:1005600028BFA0E80C5048BF0CC05DF804EB890020
:1005700028BF40F8042B08BF704748BF20F8022B63
:1005800011F0804F18BF00F8012B7047704770477B
:10059000704710B500F08CFA006810BD10B5044625
:1005A00000F086FA046010BD70472DE9FF4F0C463D
:1005B0001E464FF0FF378BB0D2E90001DDF86080B6
:1005C0000A908A46C1F30A5505B93D4600210846FE
:1005D0004FF00000BAF1000F00F4400005DA00EB24
:1005E00080004FF4400101EA50004FEA9059B9F100
:1005F000010F00DDB9460A9850EA4A000ED044F6D1
:100600001050A5F2FF3545432F14B8F1000F1ED04E
:100610007542291E1EDDC9F100021CE0B8F1010F70
:100620004FF0000001D0302103E0F24305E02154F7
:10063000401CB042FBDB30460022002121540B99C4
:10064000C1F80880C1E900200FB0BDE8F08FBD1BE4
:100650006D1CDEE74A4600DA694206A800F0DAFAC5
:1006600006AB93E8070003AB83E8070050460A99FE
:1006700001F08CF88DE80700A0F500501F380090BD
:100680000398002D0ADD42F21F014A460844002368
:1006900003A90390684601F037FB09E0A0F500507C
:1006A0004A461F38002303A90390684601F056FB11
:1006B0008DE807000004000C03D04FF0FF30410824
:1006C00000E01046B8F1000F03D00022009215465A
:1006D0001EE0751E05D400F0EFF9303262556D1E34
:1006E000F9D5B3460122084302D000227F1C04E062
:1006F0002078302801D100227F1E002A099784D05B
:100700001DE0112D07DA00F0D7F9303262556D1C6B
:1007100050EA0102F5D1084302D00098C8B10EE0BA
:100720000021681E05E0235C625C63542254401E75
:10073000491C8142F7DBAB46A81B401E09900020F4
:1007400004F80B000B98099AC0F80880C0E9002B48
:100750007AE711264FF0000857E72DE9F04F884659
:100760000446D21D22F0070191B0D1E90001CDE984
:100770000A0104F064F902460B98C00F01D02D2045
:1007800007E02068810701D52B2002E0202101EA43
:10079000C000032A099001D0072A05DB0346414621
:1007A000204600F0D7F90BE12078800601D5E069FA
:1007B00000E00620B8F1650F814606D0B8F1660F5B
:1007C00018D0B8F1670F70D131E00020B9F1110FE6
:1007D000009001DB112301E009F101030AAA01A93C
:1007E0000CA8FFF7E2FEDDE90C70002609F1010517
:1007F000834647E001204B4600904FF000470AAA8D
:1008000001A90CA8FFF7D1FEDDE90DB00C995D46FA
:10081000002610B909F101000D18B9EB050003D449
:10082000C0F1FF3609F10105A5EB09002BE0B9F194
:10083000010F01DA4FF001090020B9F1110F00900A
:10084000484601DD112300E003460AAA01A90CA8CD
:10085000FFF7ABFEDDE90C704D460026834620789D
:1008600000070AD4AB4500DA5D4601A8012D04DD7E
:10087000411911F8011C302907D04F4502DA17F150
:10088000040F04DA012082460FE06D1EEEE7002F10
:1008900002DCED1B3E4403E0781CA84200DD7D1C19
:1008A000B81B00F1010A4FF000472078000703D47D
:1008B000AA4501DB4FF0FF3A0021B7F1004F0DF1DF
:1008C00043088DF8431024D002202B23002F01DA97
:1008D0007F422D230A21021EA0F1010000DC5FB13E
:1008E00097FBF1FC97FBF1F201FB1C7C17460CF126
:1008F000300C08F801CDEEE7A8F101000370218863
:10090000090501D5452100E06521A0F1010800F8A5
:10091000011C09980FA9A1EB0807FF1D00B10120D8
:10092000411901EBEA70A1693844081A401EA06120
:100930002078C00602D42046FFF734FD099828B17C
:10094000D4E901219047206A401C20622078C0062B
:1009500022D52046FFF726FD1EE0002E04DBB3451E
:1009600002DD01A8805D00E03020D4E9012190473C
:10097000206A401C2062761CAAF101005FEA000A8E
:100980000AD100F091F8C0680168405CD4E9012107
:100990009047206A401C2062281EA5F10105DCDC7E
:1009A00007E0D4E9012118F8010B9047206A401CA8
:1009B0002062381EA7F10107F3DC2046FFF708FD8F
:1009C000032011B041E6000001694A1C0261087869
:1009D000704700B58FB0CDE901310021059105497F
:1009E0007944CDE9031011466846FFF702FD0FB0C8
:1009F00000BD0000E5FFFFFF0A6802F8010B0A6076
:100A0000704700000FB4002300B589B00CA9009115
:100A10000B99CB60214B7B440693214B7B4407937E
:100A200004236FF00042CDE901321E4A7A446B463E
:100A300008920246002004F0FBFC09B05DF814FBAC
:100A400070B506464FF0FF3015460C46324686B06C
:100A50000091CDE9010169460020049004A8FFF748
:100A6000D1FF02460498211825B108B1084600E0DC
:100A700020462860049800280DD0002A02DD009846
:100A8000884208D03246081B69460094CDE901042B
:100A900004A8FFF7B7FF06B070BD0000BB0100005F
:100AA000D3010000130100000048704764020020D9
:100AB000004870474402002030B5B0F10A024FEA06
:100AC000900E71F100034EEA817EB0EB0E0061EBF7
:100AD00091014FEA101E4EEA017E10EB0E0041EB31
:100AE00011114FEA102E4EEA016E10EB0E0041EB91
:100AF00011214FEA104E4EEA014E10EB0E0041EB71
:100B00001141401841F100014FEAD00040EA417024
:100B10004FEAD10110EB80054FEA810444EA90745A
:100B200044EB01046D1944EB0404521BA3414FF044
:100B3000000348BF0A3200D530BD401C41F100011E
:100B400030BD10B5044600F001F90068005D00F00A
:100B5000010010BD2DE9F0411F460446032601683F
:100B6000072A01F4006004DB08B116A505E016A50C
:100B700003E008B115A500E015A521F010002060E4
:100B8000A069C01EA0610FB1401EA0612046FFF702
:100B900009FC4FB1D4E9012138469047206A401C36
:100BA0002062C01C206206E0206AFAE7D4E9012135
:100BB00015F8010B9047761EF8D22046FFF708FC87
:100BC000BDE8F0814E414E006E616E00494E460018
:100BD000696E6600426842B1016811F8013B23B1B9
:100BE000521EC0E90012184670470121C160881EDC
:100BF000704742685AB1C368016843B983688B4241
:100C000005D0491E521CC0E90012002070474FF069
:100C1000FF3070472DE9F047814616468AB03548C7
:100C200078440DC88DE80D0032487844801C03AC30
:100C30000DC884E80D0041F69B300844372190FB35
:100C4000F1F290FBF1F5A5F1800501FB12041B3CCC
:100C500002D56442012000E00020DFF898A0804621
:100C60000027FA44AAF1BE0A0EE0E0070AD0324695
:100C7000684607EB470101230AEB810101F06EF89A
:100C80008DE8070064107F1C002CEED1194F7F44C3
:100C9000AE3F19E0E80715D007EB04100DF1180A74
:100CA00090E80E008AE80E00C068F04201D1981961
:100CB00008903246012306A903A801F04FF803ABC0
:100CC00083E807006D10641C002DE3D14FF0010391
:100CD00032466946B8F1000F03A802D001F014F8BB
:100CE00001E001F03BF8C9E90001C9F808200AB0A9
:100CF000BDE8F087E4480000004870474402002047
:100D00007546FFF7F9FFAE4605006946534620F0E9
:100D10000700854618B020B5FFF7A6FABDE82040C9
:100D20004FF000064FF000074FF000084FF0000BA7
:100D300021F00701AC46ACE8C009ACE8C009ACE85A
:100D4000C009ACE8C0098D467047000010B5FFF738
:100D5000ABFE001D10BD00BF094100002DE9FF4F93
:100D600006468BB00878FF2806D0491C2D2805D0F0
:100D700000244FF0000908E000200CE00124F8E70F
:100D800009EB8903491C00EB43090878FF28F7D1D8
:100D900014B1C9F100008146107800252C46AA46FE
:100DA00029462D2801D02B2804D1521C2D2813D0E0
:100DB000002082468B461078FF280FD04FF0000CA1
:100DC0000A21521CA5FB017804FB018105FB0C11D3
:100DD000C5194BEB0104EEE70120EAE700210846C4
:100DE0004FF00000BAF1000F02D000EB8000400885
:100DF000C0F38157012F01DD4FF0FF370E9955EAFF
:100E0000040009EB01080BD04FF0020918F5FA7F36
:100E100016DA4FEACA70002F706008DD012007E083
:100E20004FEACA70C6E900B00FB0BDE8F08F0020ED
:100E30003060FFF73DFEC0F800901821084616E02C
:100E4000B8F5FA7F18DD002F02DAF748784401E0A0
:100E5000F6487844D0E90010C6E9001040EACA70AC
:100E60007060FFF725FEC0F80090142108460FB00F
:100E7000BDE8F04F04F077BA002108464FF00000BB
:100E8000B8F10001099002DAC7F1000200E03A4629
:100E900001DAC8F1000106A8FFF7BCFE06AB93E833
:100EA000070003AB83E8070044F23E005BEA04015D
:100EB0000090584604D144F21E012C465D46009134
:100EC000210C0904014306D10099240444EA154485
:100ED0002D041039009104F07F41014306D100999F
:100EE000240244EA15642D020839009104F070418F
:100EF000014306D10099240144EA15742D01091F0C
:100F0000009104F04041014306D10099A40044EA55
:100F10009574AD00891E009104F00041084304D18E
:100F200000986D196441401E00904FF001033A464D
:100F30006846B8F1000FCDE9014503A902DD00F0D4
:100F400022FF01E000F0F5FEBAF1000F04460D4665
:100F500001D084F00044002108464FF000000999B8
:100F600040F2FF77484010F00C0F07D124F000400A
:100F7000284303D0C4F30A50B84212D1FFF798FDBA
:100F8000C0F80090C4F30A50B8420AD1A848784487
:100F9000D0E90010C6E9001004F000410843706079
:100FA00042E7C6E900543FE72DE9FF4F1F464FF0E7
:100FB000000A4FF0FF38454691B0D7E90146CDF819
:100FC0003CA0FFF771FDC0680168405C1090B969F2
:100FD00012986D1C8847396A814688470028F6D1E7
:100FE000B9F1FF3F0AD0002E24F4D06411DDB9F12D
:100FF0002B0F08D0B9F12D0F0BD102E0404615B0F0
:1010000013E744F48064B96912986D1C8847761E12
:101010008146600504A901D52D2000E02B20002E7B
:1010200001F1010B0DF130088DF810003FDDB9F131
:10103000690F08D0B9F1490F05D0B9F16E0F02D090
:10104000B9F14E0F1CD13B4601A8009580E8500233
:10105000DDE912126FF0020004F0EEF9C11CCED1EE
:101060000EE0B96912986D1C884781461398761E68
:1010700044F4007405600F98401C002E0F9016DD9C
:10108000B9F1300FEDD0B9F1780F02D0B9F1580FA6
:101090000DD10F9801280AD13B46CDE90054DDE976
:1010A0001212001F029604F0C5F9C11CA7D11099B5
:1010B00089453ED144F0800406E01399681CAAF1EA
:1010C000010A44F400740860B9696D1C1298761E18
:1010D000884730288146F0D02BE01099894505D10A
:1010E000200603D4761E44F0800418E0484603F03E
:1010F00002FE08B3761E0DF123018B4544F4007403
:1011000008D2A9F130000BF8010B200607D5AAF18F
:10111000010003E0200602D40AF101008246A00586
:1011200002D51399681C0860B96912986D1C88472C
:101130008146002ED1DC53E0002E51DDB9F1650F60
:1011400002D0B9F1450F4BD1A00549D5B9696D1C45
:101150001298761E24F440748847002E81460CDDD8
:101160002B2804D0B9F12D0F07D144F48074B9694C
:1011700012986D1C8847761E8146E00501D52D2109
:1011800000E02B2108F8011BCDF8008021E0761E3D
:101190000DF13901884544F400740CD2A9F13000F6
:1011A00010F0FF0088F8000002D10099884509D9A5
:1011B00008F1010806E0E00501D51E4801E042F211
:1011C0000F708246B96912986D1C88478146139842
:1011D0000560002E04DD484603F08DFD0028D6D1C1
:1011E000F96912988847FF2053468BF8000088F869
:1011F000000000200A900B9004AA0CA90AA8FFF78F
:10120000ADFDA00502D46FF00100F8E614F0240F44
:1012100012D0E0071CD13868DDE90A12031D3B60DB
:101220000068C0E9001213E0F8460000EA4600003A
:10123000AE450000F1D8FFFF0AA9684603F048FD5B
:10124000E00705D13868009A011D39600068026026
:101250002846D4E610B50446AFF300802046BDE82A
:101260001040FEF7EDBF00004FF0013C50F8042B9A
:1012700051F8043B9A4221D1A2EB0C03934313EAA9
:10128000CC1317D150F8042B51F8043B9A4215D1D6
:10129000A2EB0C03934313EACC130BD150F8042BAD
:1012A00051F8043B9A4209D1A2EB0C03934313EA91
:1012B000CC13DBD04FF00000704700BFD01A01BA4A
:1012C000B1FA81F101F0180122FA01F0CB40C1F12D
:1012D0002001DBB2C0B2C01A2CFA01F3D11A91433B
:1012E00011EAC311E6D1704701491820ABBEFEE7F1
:1012F000260002002DE9FF4F1F464FF03C0987B042
:101300004FF00042DDE9141001F10108DDF858A0AA
:1013100002EA4050039000200590834605460446AB
:101320000490B969461E08988847AAF1010A0290FC
:10133000BAF1000F3BDD02982E2815D0102100F0E5
:1013400017FA00282EDB4FF0010B0599014317D047
:10135000B9F1000F0BDB4A46C11700F0F6F905435F
:101360000C43A9F1040905E0012004900BE008B149
:1013700045F0010501200590049820B9361D02E0D2
:10138000049800B1361FB969089808F10108884728
:10139000BBF1000FAAF1010A0290C9D00999C1F866
:1013A0000080C5E70298702808D0502806D0F96957
:1013B00008988847BBF1000F14D04FE0002002903E
:1013C0000120BBF1000F049009D0B969089808F119
:1013D00001088847AAF10109B9F1000F07DCF96992
:1013E000089888476FF001000BB0BDE8F08F2B28FC
:1013F00004D02D280CD14FF0FF300490B969089823
:1014000008F101088847A9F10109B9F1000FE6DDEB
:10141000411CE4D00A2100F0ABF90028DFDB02997F
:1014200008F1010801EB810100EB41000290B9696C
:10143000089888470A2100F09BF9099AA9F1010947
:10144000B9F1000FC2F8008001DD0028E7DAF96980
:10145000089888470499029800FB016655EA040041
:1014600004D004F04041090002D006E0039898E05F
:10147000A40044EA9574AD00B61E04F000410800D3
:1014800002D16D196441761E159810F0240F03D017
:101490004FF00B095C4803E04FF028096FF07D0026
:1014A0008246564507DAAAEB06018944B9F1410F95
:1014B00001DD4FF0410901200021A9F1010200F0F6
:1014C00044F9024628400B462140084301D001213F
:1014D00000E00021501E029143F1FF3128402140DD
:1014E000084301D0012000E000200299834651EA20
:1014F0000B014FD0002108464FF00000039900F483
:10150000400039B100EB80004FF4400100EBD07097
:1015100001EA60008015012802DD4FF0FF3000E095
:1015200013D0401C36D0029860B3BBF1000F0CD131
:101530004A460120002100F008F9284021400843D4
:1015400001D0012000E00020E0B101204A46002146
:1015500000F0FBF8034640190A4661412D1A8C4100
:1015600011D3B9F1400F09DD159810F0240F02D006
:10157000AAF1340603E0AAF1170600E0761C002564
:101580004FF0004406E05B1E42F1FF3220EA030503
:1015900021EA0204CAF10100B04206DA1B490398AD
:1015A00008430190002000900EE0039AC4F3D32179
:1015B000E80A0A43164940EA44500A433146CDE955
:1015C0000002684603F08DFB159810F0240F0BD035
:1015D0001598C00715D13868DDE90012031D3B607E
:1015E0000068C0E900120CE002A8694603F070FB35
:1015F0001598C00705D13868029A011D3960006846
:1016000002604046F0E6000002FCFFFF0000F07FB1
:101610000000F03F2DE9FF4F92461D4685B04FF088
:101620000041DDE9124BDDE914727F1E01EA4B50E7
:10163000414940F0FF4940EA0108002122F0200022
:101640004928049102D04E2828D04CE03BA0012626
:1016500007C88DE80700A9690698641C88477F1EA3
:10166000014606D41DF8060018B121F02001814280
:101670000BD0E96906988847032E34D0082E32D063
:101680006FF0010009B0BDE8F08F761C032E01D089
:10169000082EE0D1601CCAF80000DCE7A9690698B2
:1016A000641C88477F1E2AD420F02000412826D1C0
:1016B000A9690698641C88477F1E20D420F020006A
:1016C0004E281CD1A9690698641C88477F1E48F4DF
:1016D000002849F48009CAF8004001D4282806D01F
:1016E000E969069888475FEACB7012D022E0A969C1
:1016F0000698641C88477F1E01D4002803DAE96934
:1017000006988847BCE72928F1D1641CCAF8004034
:10171000E9E71BF0240F07D028680499031D2B600C
:101720000068C0E9001805E02868021D2A6000680A
:10173000C0F800902046A5E70000F07F494E4649DA
:101740004E495459000000007047B2F120030AD5F9
:10175000C2F1200301FA02F120FA03F300FA02F0C9
:1017600041EA0301704700FA03F14FF000007047AF
:101770003A2800D2303820F02002412A01D3A2F1C9
:101780003700884201D34FF0FF3070475FEA400CCA
:1017900008BF91F0000F4FEA8C234FEAC12243EAC1
:1017A00051514FEA1C5018BF00F5F0404FEA30008D
:1017B00018BF41F000415FEA6C5C00F02980BCF189
:1017C000FF3F08BF40F080407047130C06BF120473
:1017D0004FF0100C4FF0000C130E04BF12020CF16E
:1017E000080C130F04BF12010CF1040C930F04BF7B
:1017F00092000CF1020CD30F04BF52000CF1010C4B
:1018000011464FF00002A0F11F00A0EB0C00704742
:1018100011F0004F08BF704731F000413FF4D5AFE1
:101820000B0C06BF09044FF0100C4FF0000C0B0E10
:1018300004BF09020CF1080C0B0F04BF09010CF1E5
:10184000040C8B0F04BF89000CF1020CCB0F04BFFA
:1018500049000CF1010CCCF12003A0EB0C0022FAA2
:1018600003F302FA0CF241EA030100F101007047B0
:1018700020F07F4C80EA030023F07F47ACEB0703A6
:1018800003F57C5300F0004003F1FF032DE980498C
:101890004FEA154B09B44FEA144325EA0B4E24EAEC
:1018A00003480FF2042606EB132749083E785FEA47
:1018B000320203FB0667C7F5000707FB06F64FEA8F
:1018C00054374FEAD64606F1020607FB066CCCF108
:1018D000005C4FEA1C472CEA074C07FB06F40CFBA4
:1018E00006F504EB15464FEA961634BF00204FF07C
:1018F00000404FEAD13706FB07FC4FEA1C4C0CFBBB
:101900000BF7D21B03FB0CF761EB07010CFB0EF787
:10191000B0EB074072EB17420CFB08F734BFA2EBA9
:101920000742B2EB074261EB17414FEA0C444FEA22
:10193000910706FB07FC4FEA1C4C0CFB0BF7B0EBC6
:10194000C74072EB573203FB0CF734BFA2EBC74220
:10195000B2EBC74261EB57310CFB0EF7B0EBC7009F
:1019600072EB57720CFB08F734BFA2EBC702B2EB65
:10197000C70261EB5771039F4FEA816141EA9211FF
:1019800004EBCC044FEAD1374FEA826206FB07FC36
:1019900042EA90124FEA80604FEA1C4C0CFB0BF7B6
:1019A000D21B03FB0CF761EB07010CFB0EF7B0EB4E
:1019B000074072EB17420CFB08F734BFA2EB07425B
:1019C000B2EB074261EB17414FEA8C554FEA9107A2
:1019D00004EB9C2406FB07FC4FEA1C4C0CFB0BF7AA
:1019E000B0EBC74072EB573203FB0CF734BFA2EBEE
:1019F000C742B2EBC74261EB57310CFB0EF7B0EBBD
:101A0000C70072EB57720CFB08F734BFA2EBC7029A
:101A1000B2EBC70261EB577115EB4C254FEA8161C0
:101A200041EA92114FEA82624FEAD13742EA9012BC
:101A300006FB07FC44F100044FEA80604FEA1C4CAF
:101A40000CFB0BF7D21B03FB0CF761EB07010CFB44
:101A50000EF7B0EB074072EB17420CFB08F734BFF0
:101A6000A2EB0742B2EB074261EB174115EB1C15E5
:101A70004FEA813141EA92414FEA823242EA904292
:101A80004FEA80304FEA0C7644F1000448EA034301
:101A90004EEA0B484FF0000EB2EB080C71EB030757
:101AA00024BF624639464EEB0E0E4FF0000B001875
:101AB000524149414BEB0B0BB2EB080C71EB0307A6
:101AC0007BF1000B24BF624639464EEB0E0E4FF001
:101AD000000B0018524149414BEB0B0BB2EB080CC9
:101AE00071EB03077BF1000B24BF624639464EEBD6
:101AF0000E0E51EA020718BF46F0010616EB0E76ED
:101B000055F1000254F1000103D5BDE88901BDE89B
:101B10000088BDE88901BDE80048B619524141EB93
:101B20000101A3F10103704780807F7E7D7C7B7A79
:101B30007978777676757473727171706F6E6E6D79
:101B40006C6C6B6A6A69686867666665646463631F
:101B500062616160605F5F5E5E5D5D5C5C5B5B5AA5
:101B60005A59595858575756565555555454535312
:101B700052525251515050504F4F4F4E4E4D4D4D6D
:101B80004C4C4C4B4B4B4A4A4A49494948484847B8
:101B900047474746464645454544444444434343F6
:101BA000434242424241414146EA0646A3F5705350
:101BB0004FEA164646EA42564FEAD22242EA4152DC
:101BC00010B54FEAD121A3F1010300F02FF820F066
:101BD000004000F1020C00F0004701EB00501146FC
:101BE000BCF5006F40EA070000D210BDBAF1000F4B
:101BF0000AD01CB503B44FF004004FF004014FF0BD
:101C000000000FBCBDE810404FF00001BBF1010F18
:101C1000B9BF04484FF0FF310348002140EA0700F4
:101C200010BD00BFFFFFEF7F0000F07F002B9C4640
:101C300030D477002BD01CB54FEA370703B44FF0F0
:101C400010004FF01001BAF1000F06D0BCF1000FE8
:101C5000DCBF40F0080040F008014FF000000FBC6E
:101C6000BDE810400BF1010BBBF1010F08BF5FEAAB
:101C7000170722BF12F1010211F101014FF00041DB
:101C800043F1000300F0004043EA00007047F9D33D
:101C90005708D0E746EA064613F1400F4FEA1646CA
:101CA0001FDD13F1200FDFBF16430A46002120334A
:101CB0005B42BED0C3F1200746EA064602FA07F7A8
:101CC0004FEA164646EA0706C3F1200722FA03F256
:101CD00001FA07F721FA03F14FF0000342EA070285
:101CE000A7E746EA020646EA06464FEA164646EAED
:101CF0000106BCBF46EA0646360C4FF000034FF023
:101D000000024FF0000194E72DE9804C9A4693467B
:101D100070B491E8380007C831EA400C48BF34EA93
:101D2000430C03D5FFF7A4FDFFF780FFF0BCBDE82F
:101D3000008C2DE9804C9A46934670B491E83800A7
:101D400007C831EA400C48BF34EA430C03D5FFF71B
:101D50008FFDFFF729FFF0BCBDE8008C2DE9804C1A
:101D60009A46934670B491E8380007C810F0804F47
:101D700008BF13F0804F03D100F01AF8FFF756FFA9
:101D8000F0BCBDE8008C2DE9804C9A46934670B4B7
:101D900091E8380007C810F0804F08BF13F0804F5B
:101DA00003D100F005F8FFF7FFFEF0BCBDE8008CA2
:101DB00020F07F4780EA030023F07F4C07EB0C0301
:101DC000A3F57C5300F00040A3F1FE0392F0000F56
:101DD00000F0B38095F0000F00F077802DE9014905
:101DE0004FEA11404FEA144621EA004800FB06FC86
:101DF00024EA064708FB06F607FB08F800FB07F78E
:101E000018EB06484CEB164C4FEA124B18EB074800
:101E10004FEA15464CEB174022EA0B4E0BFB06FC33
:101E200025EA06470EFB06F607FB0EFE0BFB07F73F
:101E30001EEB064E4CEB164C4FF000061EEB074E09
:101E40004CEB174B18EB0B0840F1000018EB0E0B96
:101E500058EB000840F100008F1A4FF000013CBF22
:101E6000C943661B14BFB5EB040C00213CBFC9433A
:101E7000F61B4FEA17444EEA8E0E27EA04454FEA56
:101E80001C4704FB07622CEA074C05FB07F70CFB19
:101E900005F604FB0CFC16EB074642EB174216EB6B
:101EA0000C4642EB1C421BEB060658EB020241417A
:101EB00046EA9E0601D5BDE80189B619524141EBBB
:101EC0000101A3F10103BDE801894FEA14454FEA7E
:101ED000114724EA054621EA074C05FB07F406FBF7
:101EE00007F70CFB06F105FB0CFC11EB074144EB7B
:101EF00017444FEA124711EB0C4144EB1C4422EA11
:101F0000074C05FB07F206FB07F70CFB06F605FB83
:101F10000CFC16EB074642EB174216EB0C4642EB65
:101F20001C456A1854F1000148BF7047B619524168
:101F300041EB0101A3F10103704795F0000F37D089
:101F40004FEA11424FEA144721EA024624EA074CBD
:101F500002FB07F106FB07F70CFB06F402FB0CFC87
:101F600014EB074441EB17414FEA154714EB0C44BF
:101F700041EB1C4125EA074C02FB07F506FB07F77E
:101F80000CFB06F602FB0CFC16EB074645EB17456F
:101F900016EB0C4645EB1C42121951F1000148BFEB
:101FA0007047B619524141EB0101A3F1010370479B
:101FB0004FEA14454FEA114724EA054621EA074C47
:101FC00005FB07F106FB07F70CFB06F24FF00006D6
:101FD00005FB0CFC12EB074241EB174112EB0C42E4
:101FE00051EB1C4148BF7047921841EB0101A3F12E
:101FF00001037047014800F0A4B900006C00002004
:10200000464910B54A6822F440324A604A6843683B
:102010001A434A6001684A6822F480724A60016883
:102020004A68036942EA03224A6001684A6822F06A
:1020300040724A6001684A6883681A434A600168CE
:102040008A6822F400628A6001688A68C3681A4359
:102050008A60816A6FF07062D14201688A6822F0FA
:1020600070628A6001688A680CD0836A1A438A6049
:1020700001688A6822F040528A6001688A68C36AEF
:102080001A4301E022F040528A6001688A6822F017
:1020900002028A6001688A68037E42EA43028A601B
:1020A00090F82010002901684A680FD042F40062BD
:1020B0004A6001684A6822F460424A6001684A68DE
:1020C000174C436A04EB43331A4301E022F40062E5
:1020D0004A600168CA6A22F47002CA620168CA6A68
:1020E000838B104C04EB03531A43CA6201688A685D
:1020F00022F400728A6001688A6890F8303042EAFF
:1021000043228A6001688A6822F480628A600168DA
:102110008A68406942EA8020886010BD002301403F
:1021200000E0FFFF0000F0FFFEE70000014800F0C4
:10213000DDBA0000D001002001681823CAB2103AAD
:10214000B2FBF3F2054B6FF30901032A9B5CC365F5
:1021500000D9091D81650846704700006C540008CD
:1021600010B5014600208B698A6A4FF0C07453B1E4
:10217000B3F5005F15D072B1012A0CD0022A0AD043
:10218000032A09D104E01AB1012A06D0022A03D198
:10219000C96AC90100D5012010BDC96AA142FAD09F
:1021A00010BD002AF7D0012AF2D0022AF3D0032A68
:1021B000F3D010BD30B50468256825F4802525606E
:1021C000046863608368402B036803D099600068EB
:1021D000C26030BD9A600068C16030BD70470120A8
:1021E00000F00EBC72B6FEE77047000078B5002420
:1021F000009490F83C20012A19D0012280F83C205C
:102200000A6807230568092A13D9EE680A3A02EB1F
:10221000420293409E43EE600B788A680A3B03EBD0
:1022200043039A400368DD682A43DA6010E0022025
:1022300078BD2E6902EB420293409E432E610B78DB
:102240008A6803EB43039A4003681D692A431A61B5
:102250004A681F23072A13D205686E6B521E02EBD1
:10226000820293409E436E630B790A885B1E92B292
:1022700003EB83039A4003685D6B2A435A6327E0AC
:1022800005680D2A12D22E6BD21F02EB82029340F8
:102290009E432E630B790A88DB1F92B203EB830304
:1022A0009A4003681D6B2A431A6311E0EE6A0D3AE7
:1022B00002EB820293409E43EE620B790A880D3B4B
:1022C00092B203EB83039A400368DD6A2A43DA6221
:1022D000164B0568144A9D4206D10D68122D03D194
:1022E000556845F48005556005689D4218D10B6816
:1022F000102B01D0112B13D1536843F4000353600A
:10230000096810290CD10A490A4A0968B1FBF2F19F
:1023100001EB8101490000E0491E00910029FBD139
:1023200080F83C40002078BD00230140002001409F
:102330002400002040420F00704770470068C06CC6
:10234000704770B5044600680668456816F0020FCD
:1023500005F020012AD049B3216CC90603D4216CB1
:1023600041F400712164816811F0405F17D1217E32
:10237000A9B9C16A11F4700F02D0816849050ED461
:10238000416821F020014160206C20F480702064BD
:10239000206CC00403D4206C40F00100206420466F
:1023A000FFF7CAFF21686FF01200086016F0040FF3
:1023B00005F0800132D089B3206CC00603D4206CB4
:1023C00040F4005020642068816811F4401F1ED141
:1023D000816B11F4401F02D08168490517D4416810
:1023E000490514D4816811F0405F10D1217E71B984
:1023F000416821F080014160206C20F4805020640D
:10240000206CC00503D4206C40F0010020642046FD
:10241000FFF7EAFE21686FF00C00086016F0010F6C
:1024200005F040010FD071B120680068C0070AD0E4
:10243000206C40F480302064204600F043F821688E
:102440006FF00100086016F0200F05F080610ED0DB
:1024500000290CD0606C40F00200606420686FF0CE
:10246000200505602046FFF768FF2068056070BD05
:1024700070B504004FF0000503D0206C002610B1A9
:1024800007E0012070BD204600F01EF8666484F865
:102490003C60206CC00610D4206C20F4885040F0C2
:1024A000020020642046FFF7ABFD6664206C20F03C
:1024B000020040F00100206400E0012584F83C6047
:1024C000284670BD7047000010B586B00446142140
:1024D0006846FEF734F815492068884224D114482C
:1024E0000021026842F480720260006800F480708B
:1024F00005900F481438026842F00102026000683B
:1025000000F001000590102000900320CDE90101AA
:102510006946084800F080FA00221146122000F0B7
:10252000E7FB122000F0D6FB06B010BD00200140F2
:10253000443802400000024018B50021009190F894
:102540003C20012A07D0012280F83C2002689368D1
:10255000DB0702D011E0022018BD936843F00103AD
:1025600093602E4A2E4B1268B2FBF3F202EB42024A
:1025700000E0521E0092002AFBD102689368DB073C
:1025800042D0036C40F20164A34343F480730364BC
:1025900053685B0505D5036C23F4005343F4805363
:1025A0000364036CDB0404D5436C23F0060343642B
:1025B00000E0416480F83C101A496FF02203136078
:1025C00049680068CA06184906D0884224D1816843
:1025D00011F0405F13D01FE08842F8D0134A9042B8
:1025E00003D1D1F80423D206F1D0114A904213D17D
:1025F000D1F8041301F01F011029E8D30CE0816821
:1026000041F08041816007E0016C41F010010164FC
:10261000416C41F001014164002018BD24000020FC
:1026200040420F00002301400020014000210140F2
:10263000002201402DE9F0410446876D00F0EAFADE
:10264000064694F835000025022806D080206065F3
:1026500084F834500120BDE8F0812068016821F041
:10266000160101602068416921F080014161206C00
:1026700008B9A06C20B12068016821F00801016050
:102680002068016821F0010101600CE000F0C2FA4D
:10269000801B052807D920206065032084F83500B9
:1026A00084F83450D7E720680068C007EED194F86A
:1026B0005C103F208840B860012084F8350084F821
:1026C00034500020C7E790F83510022903D080214C
:1026D000416501207047052180F8351000680168C8
:1026E00021F0010101600020704700002DE9F8434E
:1026F00004464FF00009CDF8009063484FF416519E
:10270000A56D0068B0FBF1F72E6894F85C10082006
:1027100000FA01F131420FD021680A6852070BD547
:102720000A6822F004020A6094F85C108840A860ED
:10273000606D40F00100606594F85C104FF0010896
:1027400008FA01F0304208D021684969090604D529
:10275000A860606D40F00200606594F85C10042091
:102760008840304208D021680968890704D5A860EC
:10277000606D40F00400606594F85C1010208840A3
:10278000304218D021680968090714D5A86020686C
:102790000168490304D50068000308D5A16C07E06F
:1027A0000168C90503D4016821F008010160216CAA
:1027B00009B12046884794F85C10202088403042B8
:1027C00031D021680968C9062DD5A86094F8350074
:1027D00005282068016806D0490347D50068000332
:1027E0001DD4616C1CE021F0160101602068416974
:1027F00021F080014161206C08B9A06C20B12068F3
:10280000016821F00801016094F85C103F208840C5
:10281000A86084F8358084F83490216D1FE0E16B66
:1028200009B120468847606D00282BD0606DC00735
:1028300014D0052084F835002068016821F00101DA
:1028400001600098401C0090B84203D820680068DE
:10285000C007F6D184F8358084F83490E16C002903
:1028600010D001B02046BDE8F04308470168C90513
:10287000D5D4016821F01001016084F8358084F816
:102880003490CCE7BDE8F883240000202DE9F04126
:10289000044600F0BFF906465CB1022084F835001A
:1028A000002584F834502068016821F0010101609E
:1028B0000DE00120BDE8F08100F0ACF9801B052897
:1028C00005D920206065032084F83500F2E72068F0
:1028D0000068C007F0D12268116820480140D4E99F
:1028E00001031843D4E9033633431843636918439B
:1028F000A3691843E3691843236A18430843616ACC
:10290000042903D1D4E90B1319430843106020684C
:102910004069666A20F0070130460E43012704280B
:102920000CD1A06A0643E06A40B12046FFF718FCCC
:1029300020B14020606584F83570BAE720684661B0
:102940002046FFF7F9FB94F85C203F21914081601D
:10295000656584F835700020ACE700003F8010F01A
:102960002DE9F0410446866D90F8340000250128D9
:102970000DD0012084F8340094F835700020012F28
:1029800007D084F8340002252846BDE8F0810220F3
:10299000FBE7022784F8357060652046FFF70AFCE4
:1029A00094F85C103F208840B0602068016841F0D6
:1029B00016010160206C20B12068016841F0080117
:1029C00001602068016841F001010160DCE700005E
:1029D0000EB5002000900190029006208DF80000B6
:1029E0004FF47A7308226946034801F085FA0348D8
:1029F000401E0028FCDC0EBD8C010020A0860100DA
:102A0000044910B50A68024202D00860FFF7E0FFEF
:102A100010BD0000143C01402DE9F84FDFF8BCA1C7
:102A20000022012503264FF00F090AF1040BAAF139
:102A3000040E00BF0B6805FA02F42340A34270D1D4
:102A40000F7907F00307012F01D0022F16D18768F5
:102A50004FEA420806FA08FC27EA0C07D1F80CC036
:102A60000CFA08FC4CEA070CC0F808C04768A743FA
:102A70000C79C4F3001494403C4344600C79E44363
:102A8000A4070AD0C4684FEA420C06FA0CF7BC430C
:102A90008F6807FA0CF72743C7600C7904F003042A
:102AA000022C12D1D40800EB840CDCF8204057072C
:102AB000FF0E09FA07F824EA0804D1F8108008FA92
:102AC00007F848EA0408CCF8208004684FEA420C72
:102AD00006FA0CF7BC430F7907F0030707FA0CF767
:102AE000274307604C6814F4403F70D03C4C276883
:102AF00047F480472760246822F0030704F48044E9
:102B00000094384C07EB040CDCF8084897074FEAB0
:102B1000177809FA08F7BC43334FB84202D10027AF
:102B200024E054E0314FB84201D101271EE0304F7C
:102B3000B84201D1022719E02E4FB84201D1032734
:102B400014E02D4FB84201D104270FE02B4FB842BB
:102B500001D105270AE02A4FB84201D1062705E036
:102B6000284FB84201D1072700E0082707FA08F7E5
:102B70002743CCF80878DAF800405746D1F804C06B
:102B80009C435FEACC2C00D51C433C60DBF8004042
:102B90005F46D1F804C09C435FEA8C2C00D51C43EF
:102BA0003C60DEF800407746D1F804C09C435FEA01
:102BB0008C3C00D51C433C60084F083F3C68D1F872
:102BC00004C09C435FEACC3C00D51C433C60521CD3
:102BD000102AFFF42FAFBDE8F88F0000083C014039
:102BE000443802400030014000000240000402402E
:102BF00000080240000C0240001002400014024095
:102C000000180240001C02400AB1816170470904AB
:102C1000FBE70000014880687047000018000020B2
:102C200002488168027811448160704718000020D2
:102C30000B4810B5016841F400710160016841F46E
:102C400080610160016841F480710160032000F03F
:102C50006FF80F2000F006F800F024F8002010BDF7
:102C6000003C024070B50D4D04464FF47A7128784F
:102C7000B1FBF0F00A490968B1FBF0F000F00CFB81
:102C800048B9102C07D200222146501E00F030F81F
:102C900000206C6070BD012070BD00001800002095
:102CA000240000200A4808B5016841F48041016011
:102CB000006800F4804000900548001F016841F062
:102CC00080510160006800F08050009008BD000055
:102CD00044380240002809DB00F01F020121914026
:102CE0004009800000F1E020C0F8001170470000AA
:102CF000F0B40E4B1B680C46C3F30223C3F1070567
:102D0000042D00D90425191D072901D2002300E054
:102D1000DB1E012606FA05F1491E214099409E401E
:102D2000761E16403143F0BC01F0A1BE0CED00E070
:102D3000064900F0070208684FF6FF03184040EA12
:102D40000220034A10430860704700000CED00E0C9
:102D50000000FA052DE9F0470E46050065D0DFF8C2
:102D60001481D8F80000F7B200F00700B04207D293
:102D700088F80070D8F8000000F00700B04254D185
:102D800028683D4C810712D5400703D5206840F4E0
:102D9000E05020602878000703D5206840F46040A8
:102DA00020602068A96820F0F0000843206028789F
:102DB000C0072DD0304968680839012812D0022890
:102DC00013D0032811D00968890700292DDA21685A
:102DD00021F0030101432160FFF71CFF814641F20E
:102DE000883A0EE009688903EFE709688901ECE792
:102DF000FFF710FFA0EB0901514502D90320BDE800
:102E0000F0872068696800F00C00B0EB810FEFD10B
:102E1000D8F80010404601F00701B14207D9077009
:102E2000006800F00700B04201D00120E7E72878F1
:102E3000400705D52068E96820F4E0500843206089
:102E40002878000706D52068296920F4604040EA08
:102E5000C100206000F038F82168084AC1F303116E
:102E6000515CC8400649086006480068FFF7FAFE52
:102E70000020C4E7003C02400838024074540008B7
:102E8000240000201C00002004480549006809684F
:102E9000044AC1F38221515CC840704724000020DD
:102EA000083802408454000804480549006809684D
:102EB000044AC1F34231515CC840704724000020ED
:102EC0000838024084540008154810B5006810F016
:102ED0000C02144813D01449042A0FD0082A0ED12A
:102EE0000F4C241F2268236802F03F025B0207D5C3
:102EF0002068C0F38810A0FB010106E0084610BD61
:102F00002168C1F38811A1FB00010023FDF7BEF980
:102F10002168C1F30141491C4900B0FBF1F010BD2B
:102F2000083802400024F40040787D012DE9F84F74
:102F300004006ED02078DFF84C93C007A9F1040597
:102F40004AD009F104000168C1F38101012908D0C8
:102F50000068C0F3810002280AD1D9F800004002BD
:102F600006D52868800337D560680028E1D033E0B3
:102F70006068B0F5803F10D0B0F5A02F286810D061
:102F800020F480302860286820F480202860606861
:102F9000A8B1FFF73FFE06460DE0286840F48030F8
:102FA000F4E740F480202860F7E700BFFFF732FE27
:102FB000801B642873D828688003F7D50CE0FFF7DE
:102FC00029FE064605E000BFFFF724FE801B6428AB
:102FD000F0D828688003F7D42078DFF8AC82800727
:102FE0004FF0000A3ED5A748001D016811F00C0FF4
:102FF00008D00068C0F3810002280BD1D9F8000086
:10300000400207D42868800716D5E068012800D15F
:1030100012E033E1E068B8B10120C8F80000FFF722
:10302000F9FD064605E000BFFFF7F4FD801B02280E
:10303000C0D828688007F7D52868216920F0F800F3
:1030400040EAC10028600DE0C8F800A0FFF7E2FDEB
:10305000064604E0FFF7DEFD801B02281FD8286823
:103060008007F7D42078000722D5864F874861690A
:10307000703771B101210160FFF7CCFD064604E015
:10308000FFF7C8FD801B022809D838688007F7D5EC
:103090000EE0C0F800A0FFF7BDFD064605E082E0A7
:1030A000FFF7B8FD801B02287DD838688007F7D469
:1030B0002078400768D5DFF8CCB100270BF13C0B36
:1030C000DBF80000C0000BD4DBF8001041F08051A9
:1030D000CBF80010DBF80000012700F080500090D2
:1030E0006B4E3068C00510D4306840F4807030609A
:1030F000FFF790FD009005E0FFF78CFD0099401A66
:10310000022850D83068C005F6D55E4EA0686C36EF
:1031100001280FD00528306810D020F00100306061
:10312000306820F004003060A068B8B1FFF772FD8D
:1031300000900FE0306840F00100F4E740F0040038
:103140003060F7E7FFF766FD0099411A41F28830D9
:10315000814266D830688007F4D50EE0FFF75AFD4B
:10316000009007E0FFF756FD0099411A41F28830C0
:10317000814256D830688007F4D42FB1DBF80010B4
:1031800021F08051CBF80010A069C8B33D49091D5A
:103190000968C1F3810102294AD00228504607D0AC
:1031A000C8F8600000E03CE0FFF734FD04463BE077
:1031B0004746C8F86000FFF72DFD064605E000BF52
:1031C000FFF728FD801B02282BD828688001F7D440
:1031D000D4E907010843A16A2E4A490802EB0141DC
:1031E000626A41EA8211084394F82C1040EA0161B6
:1031F000C9F8001001203866FFF70CFD044606E010
:103200003EE000BFFFF706FD001B022809D8286832
:103210008001F7D534E000BFFFF7FCFC001B02285B
:1032200002D90320BDE8F88F28688001F4D427E094
:103230000128F7D0D9F80000E26900F4800191423A
:103240001CD1226A00F03F01914217D147F6C071AC
:10325000626A0140B1EB821F10D1A26A4FF0FF33C6
:1032600000F4403103EB5202B1EB024F06D194F867
:103270002C1000F07060B0EB016F01D00120D1E79D
:103280000020CFE70438024000004742800E47424A
:10329000007000400000FFFF10B5401EB0F1807FBD
:1032A00001D3012010BD4FF0E02460610F216017B1
:1032B00001F0DDFB0020A06107202061002010BD8F
:1032C0007047704710B590F83C20012A22D00122A7
:1032D00080F83C20CA688C6822F4407222434C6813
:1032E00022F4806222430C6822F4006222430C69BB
:1032F00022F4805222434C6922F400522243C969CD
:10330000002322F480420A4301684A6480F83C307A
:10331000002010BD022010BD70B590F83C20012A9D
:1033200032D0012480F83C40022280F83D2003681E
:103330005A689D6822F070060A6832435A60134B3F
:1033400002689A4214D0B2F1804F11D0104B9A42C9
:103350000ED0104B9A420BD00F4B9A4208D00F4B15
:103360009A4205D00E4B9A4202D00E4B9A4204D19B
:10337000496825F080031943916080F83D400021A1
:1033800080F83C10084670BD022070BD000001406E
:103390000004004000080040000C00400004014010
:1033A000004001400018004010B5040003D094F81C
:1033B0003D0010B107E0012010BD002084F83C0062
:1033C000204600F01FF8022084F83D00211D2068EF
:1033D00000F0B6FF012084F8460084F83E0084F82F
:1033E0003F0084F8400084F8410084F8420084F8EB
:1033F000430084F8440084F8450084F83D00002030
:1034000010BD000008B500681149884209D1114873
:10341000016841F001010160006800F001000090C6
:1034200008BD0D498842FBD10A48001F016841F0E0
:10343000020101600068002200F0020000900121FA
:103440001D20FFF755FCBDE808401D20FFF742BCDA
:1034500000000140443802400004004090F83D1054
:10346000012901D001207047022180F83D10016838
:10347000CA6842F00102CA6000681149884214D04B
:10348000B0F1804F11D00F4988420ED00E498842CA
:103490000BD00E49884208D00D49884205D00D490D
:1034A000884202D00C49884204D1816801F00701AA
:1034B000062903D0016841F0010101600020704736
:1034C000000001400004004000080040000C0040E3
:1034D00000040140004001400018004070B504465F
:1034E00090F83C000025012817D0012684F83C60A4
:1034F000022084F83D002068826822F0770222F4DE
:103500007F4282600868502838D00DDC20284FD0D8
:1035100005DC90B3102811D14AE0022070BD30289C
:1035200046D040280AD13BE060282FD070280DD02B
:10353000B0F5805F03D0B0F5005F12D0012584F8AC
:103540003D60002084F83C00284670BDCB68D1E97E
:103550000121206800F058FF2068816841F0770160
:1035600009E0CB68D1E90121206800F04DFF206817
:10357000816841F480418160E1E719E0CA684968E7
:10358000206801F015F85021206806E0CA684968F3
:10359000206801F01EF86021206800F03FFFCEE7B0
:1035A000CA684968206801F003F840212068F4E700
:1035B000226801461046F0E72DE9F0410D4604006F
:1035C00003D094F83D0018B108E00120BDE8F08177
:1035D000002084F83C00204600F040F8022084F8E7
:1035E0003D002068816844F2070291438160211DFB
:1035F000206800F0A5FE226890689169166A2B6821
:10360000AF69034340F20330814341EA0721A868D0
:10361000EF6908434FF6FC418843E96840EA072018
:10362000014328692F6A000140EA073008436968AE
:103630006D6926F0AA0646EA0515294393602268BB
:10364000906154F8460B0162012004F81F09E075EF
:103650002076E0762077A0750020B7E710B586B019
:10366000044614216846FCF76AFF2068B0F1804FD9
:103670001FD111480021026842F001020260006877
:1036800000F0010005900C481038026842F0010279
:103690000260006800F00100059003200090022005
:1036A000CDE901010120CDE9031069460348FFF788
:1036B000B3F906B010BD00004038024000000240DF
:1036C000704770B50446006801694FF00005C943B2
:1036D000890715D4C168C943890711D4E91E01615E
:1036E00001202077206880698007204602D0FFF7FC
:1036F000E7FF04E000F0C2F8204600F054F9257717
:1037000020680169C943490717D4C168C9434907FB
:1037100013D46FF0040101610220207720688069D2
:1037200010F4407F204602D0FFF7CAFF04E000F00B
:10373000A5F8204600F037F9257720680169C943CC
:10374000090716D4C168C943090712D46FF00801EC
:103750000161042020772068C0698007204602D0DC
:10376000FFF7AEFF04E000F089F8204600F01BF9F7
:10377000257720680169C943C90617D4C168C943C0
:10378000C90613D46FF0100101610820207720686A
:10379000C06910F4407F204602D0FFF791FF04E09B
:1037A00000F06CF8204600F0FEF8257720680169EB
:1037B000C943C90708D1C168C943C90704D1891ED3
:1037C0000161204600F0F0F820680169C94309064C
:1037D00009D4C168C943090605D46FF080010161AD
:1037E0002046FFF76DFD20680169C943490609D4E9
:1037F000C168C943490605D46FF040010161204604
:1038000000F010F920680169C94389060BD4C1682A
:10381000C943890607D46FF0200101612046BDE845
:103820007040FFF74EBD70BD10B586B00446142140
:103830006846FCF784FE0E492068884216D10D4880
:103840000021026842F001020260006800F00100FD
:1038500005904FF4807000900220CDE90101012015
:10386000CDE9031069460448FFF7D6F806B010BD4D
:10387000000001403038024000000240704770B53F
:10388000044690F83C0000260D4601280FD0012088
:1038900084F83C006AB1042A1DD0082A2FD00C2AD3
:1038A0003FD00126002084F83C00304670BD022045
:1038B00070BD206800F0BAFD2068816941F0080100
:1038C00081612068816921F004018161206881693A
:1038D0002A69114311E0206800F0D8FD2068816951
:1038E00041F4006181612068816921F48061816116
:1038F000206881692A6941EA02218161D2E7206852
:1039000000F0FAFD2068C16941F00801C16120683A
:10391000C16921F00401C1612068C1692A691143AC
:1039200011E0206800F01CFE2068C16941F40061CC
:10393000C1612068C16921F48061C1612068C169E9
:103940002A6941EA0221C161ACE710B5040003D045
:1039500094F83D0010B107E0012010BD002084F86C
:103960003C00204600F01EF8022084F83D00211D96
:10397000206800F0E5FC012084F8460084F83E0051
:1039800084F83F0084F8400084F8410084F8420045
:1039900084F8430084F8440084F8450084F83D002E
:1039A000002010BD7047704710B500681649884266
:1039B00028D11648FEF7C2FC80B200EE100A9FED37
:1039C000151A1349B8EE400A4880C0EE010AB0EE5D
:1039D000080A20EE800A81ED050A10EE100A01F0B7
:1039E00047FC41EC100B0CA153EC102B0C48FCF7DE
:1039F000C5FC0B496423BDE810400822A1F1A400D6
:103A000000F07ABA10BD0000000400406C000020F5
:103A10000000002000F07F4525342E3266000000B3
:103A200030020020704738B5044690F83E00202848
:103A300022D181B17AB194F83C0001281CD0012038
:103A400084F83C002063204600F06CFF002803D17E
:103A5000216B012901D0012038BD21680A6849681D
:103A6000009121680C3151E8002F42F0100241E82A
:103A70000023002BF5D138BD022038BD70B50D46AE
:103A800038490068096888426BD10A2236493548AE
:103A9000FFF7C9FF354C34482570FCF731FD324B38
:103AA00000210A4603F13705A06003E09E5C032E67
:103AB0000CD0521C8242F9DB00201A5C2A54401CB4
:103AC0008842FADD2878022803D02DE01146002034
:103AD000F6E7685C032827D1244A0020121DC91E7E
:103AE00003E02B189B781354401C8842F9DD1F48D3
:103AF000001D01F049F851EC100B01F0C7F900EE80
:103B0000100A1B4884ED040A6978162916D0172973
:103B100011D018290CD0192906D1811410E00022E7
:103B200000E00122FFF770F8207BC0070ED015E0FF
:103B30004FF4005104E04FF4804101E04FF40041A4
:103B4000B5EEC00AF1EE10FAEBD1E8E706494FF402
:103B50007A7308223731034800F0CEF9E068C04399
:103B6000E06070BD8C0100202800002000000020D3
:103B7000000C024070470000F8B501680446086870
:103B8000CA684B6910F00F0F4FF0000559D003F0D1
:103B9000010602F49077374365D0C10705D0D105FF
:103BA00003D5216C41F001012164410705D5D907F6
:103BB00003D0216C41F002012164810705D5D907AA
:103BC00003D0216C41F004012164010707D502F004
:103BD0002001314303D0216C41F008012164216CA4
:103BE00000293AD0800604D5900602D5204600F080
:103BF000B2FD20684069216CC0F38010090700D431
:103C000060B3204600F072FD20684069400621D56F
:103C10002068143050E8001F21F0400140E80012F5
:103C2000002AF5D1A06BA8B16C490165A06BFEF725
:103C30004AFD002811D0A06B016D01B0BDE8F04035
:103C4000084783060FD593060DD52046BDE8F840FA
:103C500000F081BD2046FFF78DFFF8BD2046FFF73D
:103C600089FF2564F8BD266B2023012E79D1C60675
:103C700077D5D60675D5086848680090486940062B
:103C800040D5A16B086840680004000CEAD0A28D02
:103C90008242E7D9E085C869B0F5807F2DD02068E1
:103CA0000C3050E8001F21F4807140E80012002A17
:103CB000F5D12068143050E8001F21F0010140E8E0
:103CC0000012002AF5D12068143050E8001F21F0BE
:103CD000400140E80012002AF5D184F83E30256307
:103CE00020680C3050E8001F21F0100140E800125D
:103CF000002AF5D1A06BFEF79DFCA08DE18D401A46
:103D000081B229E0A08DE18D401A81B2E08D0028BA
:103D1000A8D00029A6D020680C3050E8002F22F44B
:103D2000907240E80026002EF5D12068143050E84B
:103D3000002F22F0010240E80026002EF5D184F881
:103D40003E30256320680C3050E8002F22F010022E
:103D500040E80023002BF5D12046FFF78FFEF8BD89
:103D6000FFE705062BD5150629D594F83D00212837
:103D7000F5D1A068B0F5805F01D12069B0B1206AAB
:103D8000411C2162216800784860E08C401E0004DC
:103D9000000CE084E3D12068C16821F08001C1609B
:103DA0002068C16841F04001C160D8E7206A0088FE
:103DB000C0F308004860206A801C2062E5E74006E6
:103DC000CDD55006CBD5CA68204622F04002CA6045
:103DD00084F83D3000F0E9F8C1E70000F74500083D
:103DE00070B5040004D094F83D00002510B106E041
:103DF000012070BD84F83C50204600F023F82420B8
:103E000084F83D002068C16821F40051C16020465B
:103E100000F002FD2068016921F4904101612068F1
:103E2000416921F02A0141612068C16841F40051D3
:103E3000C1602564202084F83D0084F83E00002005
:103E400070BD000070B586B0064614216846FCF7C8
:103E500076FB2349306888423FD12248002501681B
:103E600041F400310160006800F4003005901D4805
:103E70001038016841F0010101600068694600F0F6
:103E8000010005900C2000900220CDE901050320DF
:103E90000390072004901448FEF7BEFD144C13480D
:103EA00020604FF00060C4E901054014C4E90350EC
:103EB0006561A561E561256220466562FEF7E6FC65
:103EC00008B1FEF78FF9B463002211462620A663DD
:103ED000FEF70EFF2620FEF7FDFE06B070BD0000C7
:103EE0000044004040380240000002408860024028
:103EF000D0010020704770472DE9F843044690F840
:103F00003D001F4616460D4620284CD1C5B1BEB116
:103F100094F83C00012846D0012084F83C004FF082
:103F20000008C4F84080212084F83D00FEF772FEAE
:103F3000A6848146E684A068B0F5805F03D004E0E3
:103F40000120BDE8F883206928B12E465FF0000506
:103F500084F83C800EE00026FAE78021204600F03D
:103F60002BFDA0B9AEB116F8010B21684860E08CBA
:103F7000401EE084E08C4B464FF000020097002882
:103F8000EBD14FF04001204600F016FD30B1032088
:103F9000D7E735F8020BC0F30800E6E7202084F8E5
:103FA0003D000020CDE70220CBE77047FEE7000090
:103FB0001FB500211548009101910291124A039109
:103FC000C0E90021816001240161047680F820109D
:103FD0000F4AC0E90A21C461C16080F83010446111
:103FE000FEF746FA08B172B6FEE70420CDE90004F8
:103FF0000620029069460548FEF7F8F8002801D02F
:1040000072B6FEE71FBD0000002001406C000020DA
:104010000100000F2DE9F04186B014216846FCF73D
:104020008EFA34480025016841F080010160016882
:1040300001F080010591016841F001010160016812
:1040400001F001010591016841F002010160016880
:1040500001F002010591016841F008010160016869
:1040600001F008010591016841F004010160006858
:10407000214F00F004004FF47046059000223146B5
:104080003846FEF7C1FDDFF874800022C0214046AB
:10409000FEF7BAFD01244FF40410CDE90040694653
:1040A00017480294FEF7B8FC0096CDE90145694631
:1040B00038460395FEF7B0FC4020CDE90004694680
:1040C0004046CDE90245FEF7A7FC8020CDE900047B
:1040D0000220CDE9020569464046FEF79DFC00221C
:1040E00002210620FEF704FE0620FEF7F3FD06B0CF
:1040F000BDE8F08130380240000C02400008024068
:104100000004024010B596B000240F94109411944E
:10411000129413941C2108A81494FCF710FA20217F
:104120006846FCF70CFA2848264901609F21C0E93F
:10413000011440F2E731C0E9031444618461FFF7E0
:1041400033F908B172B6FEE74FF480500F900FA913
:104150001D48FFF7C3F908B172B6FEE71A48FFF72A
:10416000F4FB08B172B6FEE7139413A91648149431
:10417000FFF7D2F808B172B6FEE76020CDE9080477
:104180000A940B940C940D94002208A90E480E94E6
:10419000FFF775FB08B172B6FEE700944FF40050CC
:1041A000CDE90440029401940394694606480794BB
:1041B000FFF788F808B172B6FEE70348FFF734FB53
:1041C00016B010BD00000140B400002010B58CB046
:1041D00024216846FCF7B3F90024154809944FF0F0
:1041E00080410A94C0E90014611EC0E902410461E3
:1041F00084610320CDE900040120CDE90204049488
:10420000CDE905400794694609480894FFF7D4F9B9
:1042100008B172B6FEE7099409A905480A94FFF7A8
:104220007BF8002801D072B6FEE70CB010BD00008C
:10423000FC00002010B586B00024174800940194BB
:1042400002940394049413490594016040F23F6181
:10425000C0E9011442F20F71C0E903148461FFF751
:10426000A3F808B172B6FEE74FF48050009069469B
:104270000948FFF733F908B172B6FEE7049404A9C0
:1042800005480594FFF748F8002801D072B6FEE70C
:1042900006B010BD0004004044010020FEE7FEE728
:1042A00070477047FEF7BCBC10B592B0302168462D
:1042B000FCF745F914210CA8FCF741F91748002434
:1042C000016841F080510160006800F08050119059
:1042D0001348016841F4804101600068069400F4CD
:1042E0008040119002200090012003901020049043
:1042F0006846FEF71BFE08B172B6FEE70F20CDE957
:104300000C040E940F9400210CA81094FEF722FDCB
:10431000002801D072B6FEE712B010BD403802404E
:10432000007000400248016841F47001016070476C
:1043300088ED00E00148FFF7C4B900004401002007
:10434000F0B50268254C264D264E274F274B4FF0DF
:10435000804CA04209D0604507D0A84205D0B042A9
:1043600003D0B84201D0984204D122F0700E4A68BE
:1043700042EA0E02A0421BD0604519D0A84217D0D5
:10438000B04215D0B84213D0984211D0184DA8426F
:104390000ED0184DA8420BD0174DA84208D0174D8B
:1043A000A84205D0164DA84202D0164DA84203D10E
:1043B00022F44075CA682A434D6922F080022A43DC
:1043C00002608A68C2620A688262A04201D0984292
:1043D00001D10969016301214161F0BD0000014083
:1043E0000004004000080040000C004000040140B0
:1043F00000400140004401400048014000180040D6
:10440000001C00400020004010B5846842EA0322EE
:1044100024F47F440A432243826010BD826822F064
:1044200070020A4342F0070181607047F0B5026AEA
:1044300022F001020262036A42688469124E24F08B
:1044400073050C682C4323F002058B682B430D4D3C
:10445000A84201D0B04205D123F00807CB683B4306
:1044600023F00403A84201D0B04205D14D6922F4E3
:10447000407215438A692A434260846149684163F6
:104480000362F0BD0000014000040140F0B5026A83
:1044900022F010020262026A436884690D6824F403
:1044A000E64444EA05248D6822F0200242EA05121F
:1044B0000F4D104EA84201D0B04206D1CF6822F075
:1044C000800242EA071222F04002A84201D0B04224
:1044D00007D14D6923F4406343EA85038D6943EABC
:1044E000850343608461496881630262F0BD000016
:1044F0000000014000040140F0B5026A22F480721D
:104500000262026A4368C46922F4007224F07305EF
:104510000C68124E2C438D6842EA05220E4DA842CB
:1045200001D0B04206D1CF6822F4006242EA0722ED
:1045300022F48062A84201D0B04207D14D6923F431
:10454000405343EA05138D6943EA05134360C46190
:104550004968C1630262F0BD0000014000040140EF
:1045600030B5026A22F480520262046A4268C3696A
:104570000D6823F4E64343EA05238D6824F40054D0
:1045800044EA0534084DA84202D0084DA84204D19F
:104590004D6922F4804242EA85124260C361496853
:1045A0000164046230BD00000000014000040140CD
:1045B00010B5036A046A24F001040462846924F0DB
:1045C000F00444EA021423F00A020A4384610262FE
:1045D00010BD10B5036A23F0100303628369046AF7
:1045E00023F4704343EA023224F0A00343EA0111AA
:1045F0008261016210BD10B5806B0021C185C1844C
:10460000FFF7B8FA10BD70B5846B2068406994F864
:104610003D10C0F3C0100025212904D118B1E58454
:10462000204600F08AF82068406994F83E10C0F3F4
:104630008010222904D118B1E585204600F056F8F3
:10464000206C40F0100020642046FFF793FA70BD04
:1046500010B50146806B09680968C9052FD400218F
:10466000C18501680C3151E8002F22F4807241E8C5
:104670000023002BF5D10168143151E8002F22F0FE
:10468000010241E80023002BF5D10168143151E803
:10469000002F22F0400241E80023002BF5D1202119
:1046A00080F83E10016B012909D101680C3151E8F5
:1046B000002F22F0100241E80023002BF5D1016BFE
:1046C000012902D0FFF716FC10BD818DFFF7D6F946
:1046D00010BD10B5806B016B012902D0FFF70BFCF8
:1046E00010BD818D4908FFF7C9F910BD01680C3173
:1046F00051E8002F22F4907241E80023002BF5D1FD
:104700000168143151E8002F22F0010241E8002332
:10471000002BF5D1016B012909D101680C3151E859
:10472000002F22F0100241E80023002BF5D12021B8
:1047300080F83E1000210163704701680C3151E898
:10474000002F22F0C00241E80023002BF5D12021E8
:1047500080F83D10704708B590F83E10222901D02E
:10476000022008BD82684FF480539A4201D101694A
:1047700021B1816A9A421BD04AB10AE00268816A7B
:104780005268C2F308020A80816A891C08E0026943
:1047900072B10268526802F07F020A70816A491C95
:1047A0008162C18D491E0904090CC18503D019E03D
:1047B00002685268F1E70168CA6822F02002CA6004
:1047C0000168CA6822F48072CA6001684A6922F0EE
:1047D00001024A61202180F83E10016B012903D0BB
:1047E000FFF788FB002008BD0021016301680C3140
:1047F00051E8002F22F0100241E80023002BF5D1F0
:1048000001680A68D20602D50A6849680091818D5C
:10481000FFF734F9E6E7000070B504460068016967
:10482000E26821F44051114301612169A068E26905
:1048300008436169114308432168CA6849F20C635F
:104840009A430243CA6020684169A26921F4407119
:104850001143416131492068884202D03049884281
:1048600002D1FEF721FB01E0FEF70EFBE269002317
:10487000192164253226B2F5004F626828D0A0FBCA
:104880000101930F9200FBF701FD0146B0FBF5F02B
:104890006FF01802504301EB800006EB0010B0FBF4
:1048A000F5F000F0F002B1FBF5F002EB0012B1FB05
:1048B000F5F06FF01803584301EB800006EB001091
:1048C000B0FBF5F000F00F0021681044886070BD67
:1048D000A0FB010192185B41FBF7D8FC0146B0FB3D
:1048E000F5F00201B1FBF5F06FF01803584301EB4E
:1048F000800006EBC000B0FBF5F000F0F80002EB22
:104900004002B1FBF5F0584301EB800006EBC0001C
:10491000B0FBF5F000F00700D6E700000010014002
:104920000014014038B58162828500251346044693
:104930000564222084F83E00A26B1C48D063A26B61
:104940001B481064A26B1B48D064A06B0A46056527
:104950002168A06B091DFEF703F820680168406814
:10496000009084F83C50206948B120680C3050E831
:10497000001F41F4807140E80012002AF5D1206840
:10498000143050E8001F41F0010140E80012002AF5
:10499000F5D12068143050E8001F41F0400140E894
:1049A0000012002AF5D1002038BD00005146000851
:1049B000D3460008074600082DE9F04198461746FF
:1049C0000E460446069D27E0681C25D02DB1FEF753
:1049D00021F9A0EB0800A8421ED920680C3050E84D
:1049E000001F21F4D07140E80012002AF5D12068A0
:1049F000143050E8001F21F0010140E80012002AA5
:104A0000F5D1202084F83D0084F83E00002084F891
:104A10003C000320BDE8F0812068006836EA000011
:104A200004D00020B842CFD00020F3E70120F9E7FE
:104A30000148FFF7A1B800008C010020FEE703B495
:104A400001984100009850EAC12018BF04204A0D87
:104A500018BF40F0010040F2FF72B2EB515F08BF97
:104A600040F00200012808BF052002B07047090786
:104A7000090E002804DB00F1E02080F800147047E4
:104A800000F00F0000F1E02080F8141D70470000D6
:104A900030B52DED048B81B0B0EE408AF0EE608A27
:104AA0006A4651EC180B00F02FF900989FED329BED
:104AB0007E300090002821DC53EC192B51EC180BB0
:104AC00000F02AFA1AD0002140F608004FF000004A
:104AD000044651EC180B00F0D9F908EE100A40F624
:104AE000080004EA00014FF00000B5EEC08AF1EEC4
:104AF00010FA04BF0220FBF751FD2DE00098FF28BB
:104B000030DB002108464FF0000000F4400553EC74
:104B1000192B51EC180B00F075FB8CBF00240124FD
:104B20000220FBF73BFD9FED168A4DB1002C0CBF18
:104B30004FF400004FF48000A84218BF9FED118A87
:104B4000042108464FF00000002C01BFB1EE480AD6
:104B500001B0BDEC048B30BDB0EE480A01B0BDEC35
:104B6000048B30BD51EC180B00F090F901B000EE51
:104B7000100ABDEC048B30BD0000000000000000F6
:104B80000000807FFFFF7F7F30B583B00446FBF7D6
:104B900000FD9FED090B05468DED000B002221461F
:104BA0006846FBF74DFF2846FBF7F8FC9DED000B30
:104BB00003B030BD00000000000000000000000055
:104BC00030B540F2FF742DED048BF0EE608A18EEE4
:104BD000901A85B0B0EE408A9FED2B9B05468DED77
:104BE000008B34EA115147D053EC192B51EC180BC0
:104BF00000F092F940D02A4651EC180B00F0EAFB85
:104C000041EC180B18EE900A8DED008B34EA105031
:104C10001CD053EC192B51EC180B00F07DF92BD163
:104C20000220FBF7BBFC00F043F810EE901A18EEE0
:104C3000900A8DED020B8DED008B61F31E00039049
:104C40009DED020B05B0BDEC048B30BD0220FBF7DF
:104C5000A5FC00F01DF810EE901A18EE900A8DEDEC
:104C6000020B8DED008B61F31E0003909DED020B96
:104C700005B0BDEC048B30BD05B0B0EE480AF0EED7
:104C8000680ABDEC048B30BD00000000000000008D
:104C90009FED050B10B553EC102B51EC100B00F0F1
:104CA000B3F941EC100B10BD0000000000000070D3
:104CB0009FED050B10B553EC102B51EC100B00F0D1
:104CC000A3F941EC100B10BD000000000000001023
:104CD00010B5044691ED000BFFF7DAFE84ED000AF3
:104CE00010BD10B5044690ED000B0846FFF768FFB5
:104CF00084ED000B10BD30380A2801D20120704726
:104D0000002070470000000010B582B01446CDE9C5
:104D100000010023009A2360194B21F000409842C3
:104D20002ADA024328D0B0F5801FA8BF226810DA23
:104D30009FED150B53EC102B9DED000B51EC100B60
:104D400000F062F9CDE900016FF0350221F000407A
:104D500022600F4B6FF31E5103EB20501044206074
:104D600041F0FF5040F0005001909DED000B00BF5E
:104D700002B051EC100B10BD9DED000BF8E70000E8
:104D80000000F07F00000000000000000000504321
:104D900002FCFFFF08B5FDF74BFFFFF785FAFFF7B1
:104DA00039F920480024016841F4001101600068CD
:104DB000224600F40010009021461020FDF798FFD5
:104DC0001020FDF787FFFFF79DF9FFF7FFF9174860
:104DD000154901604FF41651C0E901140C21C4605B
:104DE000C0E904418461C461FEF7FAFF08B172B6FC
:104DF000FEE7FFF71FFAFFF7DBF80A220C490B4822
:104E0000FEF711FE094844300068016821F00801EE
:104E1000016006484838FEF721FB05484430FDF79D
:104E20008BFBFAE730380240004400408C01002040
:104E30002800002010B500290AD00878002807D0E3
:104E400005487844FCF710FA002801D0002010BD76
:104E50000248784410BD00000E070000060700005D
:104E600010B500290AD00878002807D005487844F2
:104E7000FCF7FAF9002801D0002010BD0248784460
:104E800010BD0000FE060000F606000021F0004202
:104E9000A2F16052B2F5801F01F0004328BFD2F1A9
:104EA0007F6C0BD95FEA001C43EAC20242EB5070F0
:104EB00018BF704728BF20F001007047B2F5801F6F
:104EC000BCBF184670474FEA410C1CF5001F02D2C8
:104ED000084600F043BA70B500F040F900000089C0
:104EE000FFF7F6BF4FF00040A0F5800070470000CC
:104EF00002494FF0000000F03BBA00BF0000F87F0D
:104F0000491058BFC1F140415B1058BFC3F1404345
:104F10008B42EFF30080704751EA030C17D41CF565
:104F2000801F58BFBCF5801F00F10680994218BF52
:104F3000704708BF9042704707D711F5801F58BFD0
:104F400013F5801F19D499427047894270471CF5A8
:104F5000801F08D5BCF5801FF7D58B4218BF70475E
:104F600008BF824270474FF4001C1CEB410F38BF52
:104F70001CEB430F01D28B42704770B500F0EEF886
:104F8000922449004FF000514FF08053FFF7B8BF13
:104F900051EA030C17D41CF5801F58BFBCF5801FC5
:104FA00000F10680994218BF704708BF90427047D1
:104FB00007D711F5801F58BF13F5801F19D49942E8
:104FC0007047894270471CF5801F08D5BCF5801FCB
:104FD000F7D58B4218BF704708BF824270474FF425
:104FE000001C1CEB410F38BF1CEB430F01D28B425E
:104FF000704770B500F0B2F8922449004FF00051AC
:105000004FF08053FFF77CBFDFF848C170B51CEA52
:10501000111E1EBF1CEA13159EEA0C0F95EA0C0F19
:1050200000F06F8081EA030423EA4C134EEAD47E39
:1050300021EA4C1141F4801143F48013AE44A1FBEA
:10504000024CA0FB0365AEF17F7E361955EB0C05D3
:10505000A1FB034C4CF10003A0FB021C16EB0C0659
:10506000654153F10003094218BF46F0010613F4ED
:10507000007F0BD14FEA03314FEA0530340341EA98
:10508000155140EA16506FF003020AE04FEAC321BF
:105090004FEAC520F40241EA555140EA56506FF0FC
:1050A000020202EB2E4201EB025585EACE710AD0D4
:1050B0005FEA440C18BF24F0004450F1000041F1B5
:1050C000000120EAD47040F2FE7C624500D270BD3F
:1050D000A84214BF4FF080444FF04044002E08BF58
:1050E0000024BEF1806FA8BFA1F1C041BDE87040AF
:1050F00080F282804FF0000001F1C04101F00041D8
:1051000070479EEA0C0F0CEA131518BF95EA0C0FB6
:1051100006D04FF0000081EA030E0EF0004170BD92
:1051200000F01CF88900013E00F007B800F009B853
:105130004FEA430C5FEA5C5C08D081EA030100F0AF
:105140005BB84FEA410C5FEA5C5CF6D14FF00000BF
:10515000014970470000FF070000F87F0EF1020EC2
:105160002EF0030E5EF8046B364205D4012A43EBA1
:10517000030515F5001F12D8012841EB010C1CF5A1
:10518000001F0CD80ED14FEAD17C15F5001F0CEB97
:105190004C0C0CF1020C08BF4CEBD37C04E04FF03C
:1051A000080C01E04FEAD37C0CEB4C0526FA05F61F
:1051B00006F00706B6F1040C06D20EEB860CBDE82D
:1051C00070404CF0010C6047DFE80CF0090B020264
:1051D0004FF000414FF00000A1F5002170BD1946CD
:1051E0001046012851EB010418BFD4F5001484BF08
:1051F000002001F0004170BD0808A0F500114FEA41
:105200003101704753EA010C17D41CF5801F58BFB9
:10521000BCF5801F00F106808B4218BF704708BFA5
:105220008242704707D713F5801F58BF11F5801FC2
:1052300019D48B4270479B4270471CF5801F08D5DC
:10524000BCF5801FF7D5994218BF704708BF904240
:1052500070474FF4001C1CEB430F38BF1CEB410F91
:1052600001D2994270470FB40CBC03BCFFF7C1BE1A
:1052700043004FEAD30C4FEA3C0C43401FBF4007AA
:105280000CF1605113F0FE4F70471CF0006F03D11A
:1052900000200CF0004170470CF0004343EA5070CE
:1052A00010B540EACC0000F00EF800BF00000092FC
:1052B0004FEA0001FFF7A0BF4FF000414FF00000A0
:1052C000A1F5002170470EF1020E2EF0030E5EF8DC
:1052D000044B244204D44FEA4102B2F17F4F11D86B
:1052E0004FEA4003B3F17F4F0CD80ED14FEAD07C88
:1052F000B2F17F4F0CEB4C0C0CF1020C08BF4CEBE5
:10530000D17C04E04FF0080C01E04FEAD17C0CEBBB
:105310004C0324FA03F404F00704B4F1040C06D29D
:105320000EEB840CBDE810404CF0010C6047DFE848
:105330000CF0070802024FF00040A0F5800010BDFD
:105340000846420018BFD2F1807288BF00F00040CA
:1053500010BD4FF04070E1EE100A7047FF2141EAA6
:10536000D050C00570474FF000007047FBF7F5B90B
:105370000CF00F03092B08BF082000F05F800A2BF8
:105380000BD0082B18BF704708BF1CF0400F0AD085
:105390004FF000004FF0000170471CF0400F18BFA5
:1053A0004FF0004070471CF0100F08D020F0704301
:1053B00000F07F4242EAD3014FEA4370704700F0A9
:1053C000604021F07F4242EA000201F07F4040EA63
:1053D000727070474FF0FF0C4CF4E06C1CEA1153F4
:1053E0001CBF9CEA030C9445C2BFDA4201EB025198
:1053F0007047002B0DD0BCF1000F0FD0002A01F038
:105400000041A4BF41F0E04141F07F614FF0000056
:10541000704701F000414FF00000704750EA01333F
:105420004FF09B0C18BF4CF0806C7FF461AD70475F
:10543000FBF7BABDFBF75EBFFCF7ECB81CF4801FAE
:1054400011D01CF4E02F03D06FEACC314900704733
:105450004FF04050EFF3008222F0704242EA000227
:1054600082F3008870474FF0000070470006101666
:1054700000061016000000000000000001020304F6
:1054800006070809000000000102030402400000B2
:10549000000000A00000000005400000000000C85F
:1054A000000000000C4000000000409C00000000D4
:1054B000194000000020BCBE000000003440000085
:1054C000BFC91B8E00000004B5400000504BCFD078
:1054D0006607E2CF010000006C4100003E8251AA45
:1054E000DFEEA73401000000D9420000DCB5A0E2E5
:1054F0003A301F97FFFFFFFFB4450000FD25A0C80D
:10550000E9A3C14FFFFFFFFFFF3F00000000008045
:1055100000000000FF3F00000000008000000000CD
:105520007C5600080000002028000000C40100088C
:10553000A45600082800002080080000E0010008B0
:10554000000000000000F07FFFFFFFFFFFFFEF7F84
:105550001C00000043000000F8FFFFFF0C000000EB
:105560000E0000000F0000002E00000010010000DF
:1055700043000000F8FFFFFF004040404040404033
:105580004040414141414140404040404040404016
:1055900040404040404040404005020202020202BA
:1055A0000202020202020202022020202020202009
:1055B000202020020202020202029090909090901D
:1055C00010101010101010101010101010101010DB
:1055D000101010100202020202028888888888884F
:1055E000080808080808080808080808080808083B
:1055F0000808080802020202400000000000000043
:10560000000000000000000000000000000000009A
:10561000000000000000000000000000000000008A
:10562000000000000000000000000000000000007A
:10563000000000000000000000000000000000006A
:10564000000000000000000000000000000000005A
:10565000000000000000000000000000000000004A
:10566000000000000000000000000000000000003A
:10567000000000000000000000000000000000002A
:10568000000000000000000000000000000000001A
:1056900000000000010000001000000000000000F9
:0456A0000024F400EE
:040000050800018965
:00000001FF
